{
  "transactions": [
    {
      "hash": "0x8a9ae333f1c93d6cba73a0381bccab4d9a3c9d6020d04591156b81ca2c80610e",
      "transactionType": "CALL",
      "contractName": null,
      "contractAddress": "0x779877a7b0d9e8603169ddbd7836e478b4624789",
      "function": "transferAndCall(address,uint256,bytes)",
      "arguments": [
        "0x9DdfaCa8183c41ad55329BdeeD9F6A8d53168B1B",
        "3000000000000000000",
        "0xfe78e83a987aeedebabb297fc96df59f2114d9c86d5433856c1e274c3c1c1920"
      ],
      "transaction": {
        "from": "0x756a06a3802da66c6f5c2ba6370841e1c14f342c",
        "to": "0x779877a7b0d9e8603169ddbd7836e478b4624789",
        "gas": "0x1c1ff",
        "value": "0x0",
        "input": "0x4000aea00000000000000000000000009ddfaca8183c41ad55329bdeed9f6a8d53168b1b00000000000000000000000000000000000000000000000029a2241af62c000000000000000000000000000000000000000000000000000000000000000000600000000000000000000000000000000000000000000000000000000000000020fe78e83a987aeedebabb297fc96df59f2114d9c86d5433856c1e274c3c1c1920",
        "nonce": "0x26",
        "chainId": "0xaa36a7"
      },
      "additionalContracts": [],
      "isFixedGasLimit": false
    }
  ],
  "receipts": [
    {
      "status": "0x1",
      "cumulativeGasUsed": "0xd2ae76",
      "logs": [
        {
          "address": "0x779877a7b0d9e8603169ddbd7836e478b4624789",
          "topics": [
            "0xddf252ad1be2c89b69c2b068fc378daa952ba7f163c4a11628f55a4df523b3ef",
            "0x000000000000000000000000756a06a3802da66c6f5c2ba6370841e1c14f342c",
            "0x0000000000000000000000009ddfaca8183c41ad55329bdeed9f6a8d53168b1b"
          ],
          "data": "0x00000000000000000000000000000000000000000000000029a2241af62c0000",
          "blockHash": "0x485edfc6885dcc93c092d89231e317bfac4012ed9cfc1fa8d9faae0e3310c618",
          "blockNumber": "0x64f693",
          "transactionHash": "0x8a9ae333f1c93d6cba73a0381bccab4d9a3c9d6020d04591156b81ca2c80610e",
          "transactionIndex": "0x2c",
          "logIndex": "0x7a",
          "removed": false
        },
        {
          "address": "0x779877a7b0d9e8603169ddbd7836e478b4624789",
          "topics": [
            "0xe19260aff97b920c7df27010903aeb9c8d2be5d310a2c67824cf3f15396e4c16",
            "0x000000000000000000000000756a06a3802da66c6f5c2ba6370841e1c14f342c",
            "0x0000000000000000000000009ddfaca8183c41ad55329bdeed9f6a8d53168b1b"
          ],
          "data": "0x00000000000000000000000000000000000000000000000029a2241af62c000000000000000000000000000000000000000000000000000000000000000000400000000000000000000000000000000000000000000000000000000000000020fe78e83a987aeedebabb297fc96df59f2114d9c86d5433856c1e274c3c1c1920",
          "blockHash": "0x485edfc6885dcc93c092d89231e317bfac4012ed9cfc1fa8d9faae0e3310c618",
          "blockNumber": "0x64f693",
          "transactionHash": "0x8a9ae333f1c93d6cba73a0381bccab4d9a3c9d6020d04591156b81ca2c80610e",
          "transactionIndex": "0x2c",
          "logIndex": "0x7b",
          "removed": false
        },
        {
          "address": "0x9ddfaca8183c41ad55329bdeed9f6a8d53168b1b",
          "topics": [
            "0x1ced9348ff549fceab2ac57cd3a9de38edaaab274b725ee82c23e8fc8c4eec7a",
            "0xfe78e83a987aeedebabb297fc96df59f2114d9c86d5433856c1e274c3c1c1920"
          ],
          "data": "0x000000000000000000000000000000000000000000000000000000000000000000000000000000000000000000000000000000000000000029a2241af62c0000",
          "blockHash": "0x485edfc6885dcc93c092d89231e317bfac4012ed9cfc1fa8d9faae0e3310c618",
          "blockNumber": "0x64f693",
          "transactionHash": "0x8a9ae333f1c93d6cba73a0381bccab4d9a3c9d6020d04591156b81ca2c80610e",
          "transactionIndex": "0x2c",
          "logIndex": "0x7c",
          "removed": false
        }
      ],
      "logsBloom": "0x00000004000000000000000000020000000000000020000000000000020000000000000000000000000000000000000000000000000000004000000000000000000000000000000000000008000000000000000000000000000020000020000008000000000000000000000000000000000000000000000000000010000040000000000000000000000000014000800000000020000000000000000000000000000800000000000000000000010000000000000000000000000004000000000400000002000000000000000000000000000000000000000900000000000000000010000000000000800000000000000000000000000000000000000000000000",
      "type": "0x2",
      "transactionHash": "0x8a9ae333f1c93d6cba73a0381bccab4d9a3c9d6020d04591156b81ca2c80610e",
      "transactionIndex": "0x2c",
      "blockHash": "0x485edfc6885dcc93c092d89231e317bfac4012ed9cfc1fa8d9faae0e3310c618",
      "blockNumber": "0x64f693",
      "gasUsed": "0x133b1",
      "effectiveGasPrice": "0x281ea06cf",
      "from": "0x756a06a3802da66c6f5c2ba6370841e1c14f342c",
      "to": "0x779877a7b0d9e8603169ddbd7836e478b4624789",
      "contractAddress": null
    }
  ],
  "libraries": [],
  "pending": [],
  "returns": {},
  "timestamp": 1725251461,
  "chain": 11155111,
  "commit": "327de04"
}